:020000040800F2
:10000000300700209D0100083F1E0008030900087A
:10001000351D00080B0600080D2B0008000000002D
:100020000000000000000000000000005123000854
:100030000F06000800000000D1210008B5010008EB
:10004000B7010008B7010008B7010008B7010008B0
:10005000B7010008B7010008B7010008B7010008A0
:10006000B7010008B7010008B7010008B701000890
:10007000B7010008B7010008B7010008B701000880
:10008000B7010008B7010008B7010008B701000870
:10009000B7010008B7010008B7010008B701000860
:1000A000B7010008B7010008B7010008B701000850
:1000B000B7010008AD260008B7010008B701000825
:1000C000B7010008B7010008B7010008B701000830
:1000D000B7010008C9280008B7010008B7010008E7
:1000E000B7010008B7010008B7010008B701000810
:1000F000B7010008B7010008B7010008B701000800
:10010000B7010008B7010008B7010008B7010008EF
:10011000B7010008B7010008B7010008B7010008DF
:10012000B7010008B7010008B7010008B7010008CF
:10013000B7010008B7010008B7010008B7010008BF
:10014000B7010008B7010008B7010008B7010008AF
:10015000B7010008B7010008B7010008B70100089F
:10016000B7010008B7010008B7010008B70100088F
:10017000B7010008B7010008B7010008B70100087F
:10018000B7010008B7010008DFF80CD000F0C2F991
:1001900000480047192C0008300700200648804717
:1001A00006480047FEE7FEE7FEE7FEE7FEE7FEE75C
:1001B000FEE7FEE7FEE7FEE7F123000889010008FD
:1001C0002DE9F04D81EA030404F0004B21F00045D5
:1001D00014464FF0000A23F0004150EA050220D0F7
:1001E00054EA01021DD0C5F30A570246C5F31303B2
:1001F000C1F31300C1F30A5640F4801543F4801391
:10020000A7EB0608101BD64608F2FD3873EB050075
:1002100002D308F1010801E092185B41B8F1000F28
:1002200003DA00200146BDE8F08D00204FF4801174
:10023000064684460EE0171B73EB050705D3121B19
:1002400063EB050306434CEA010C49084FEA300012
:1002500092185B4150EA0107EDD152EA030012D037
:1002600082EA040083EA0501084305D0101BAB4174
:1002700006D20122002306E000224FF0004302E0F4
:100280006FF0010253101AEB06004CEB085110EB13
:100290000A0041EB0B01BDE8F04D00F08CB80EB543
:1002A00040F2334102910021CDE900110A460B468C
:1002B00000F090F803B000BD00F0004230F00040C4
:1002C0000AD0C10D01F56071C0F3160042EA015178
:1002D000C2084007114370470020014670470000E4
:1002E00030B5041E71F1000404DB4FF000444042BD
:1002F00064EB0101141E73F1000405DB1C464FF092
:100300000043524263EB0403994208BF904230BD60
:1003100001F0004330B421F0004150EA010206D060
:100320000A0DA2F56072C1F31301002A02DC30BC91
:1003300000207047440F44EAC104C100E01830BCFB
:1003400000EBC250AFF300800029A8BF7047401CEB
:10035000490008BF20F00100704710B4B0FA80FCDB
:1003600000FA0CF050EA010404BF10BC704749B118
:10037000CCF1200421FA04F411FA0CF118BF012188
:1003800021430843A3EB0C01CB1D4FEA00614FEA68
:10039000102042BF002010BC704700EBC350104437
:1003A0000029A4BF10BC7047401C490008BF20F0C2
:1003B000010010BC704710B5141E73F1000408DA78
:1003C000401C41F1000192185B411A4301D120F019
:1003D000010010BD2DE9F04D92469B4611B1B1FAD6
:1003E00081F202E0B0FA80F22032904600F0A4F8E8
:1003F00004460F4640EA0A0041EA0B0153465A46BA
:10040000084313D0114653EA010019D0C8F1400245
:10041000504600F0A0F805460E4650465946424662
:1004200000F08AF8084305D0012004E02046394650
:10043000BDE8F08D0020054346EAE0762C433743C3
:100440000A986305E40AA0EB08000022FD0A44EACA
:1004500047540A3002D500200146E9E7010510198A
:100460006941DDE9084500196941BDE8F04DA2E7A1
:100470002DE9F04D00231A461B1A8A4103DB0020A8
:100480000146BDE8F08DC1F30A52C1F3130141F4F6
:1004900080154FF0000BD10702D100186D41521E9C
:1004A0000027044640F2FF11384601EB620A3E463F
:1004B0008046024600204FF4801100F04CF8C2192B
:1004C0007141BB1846EB0100B4EB030C75EB000C5B
:1004D00004D3E41A65EB000517460E46241908F10B
:1004E00001006D4180463428E3DDF91946EB060032
:1004F000091BA84103D24FF0FF32134601E000224E
:1005000013461BEB070046EB0A51BDE8F04DFFF721
:1005100052BF0000064C074D06E0E06840F00103C2
:1005200094E8070098471034AC42F6D3FFF730FE4A
:10053000902C0008B02C0008202A04DB203A00FA96
:1005400002F1002070479140C2F1200320FA03F32A
:10055000194390407047202A04DB203A21FA02F028
:100560000021704721FA02F3D040C2F120029140ED
:1005700008431946704710B500F0C5F900F02AF994
:1005800001F016FD01F0B8FD4FF4165002F0B0F97D
:1005900010BD2DE9F04707460D4690460026B146AE
:1005A00005F1060A504602F03DFB0446AA202070E1
:1005B000FF2060704FFA88F0A07068B2E0700420ED
:1005C00003E0011F795C2154401C291D8842F8DB9F
:1005D000002007E0215C3144CEB209EB060101F0B6
:1005E000FF09401C291D8842F4DB71B2281D2154EB
:1005F0004FFA89F1681D2154A91D204602F064FAC2
:10060000204602F0E1FABDE8F08700BFFEE7704740
:1006100010B5044603E04FF47A7000F007F8201E8E
:10062000A4F101018CB2F6D110BD000010B5044652
:100630000F4801F0EFFD0E4840680E49B0FBF1F0A5
:1006400060434FF0E021486100208861084600695E
:1006500040F00500086100BF4FF0E020006900F4A1
:1006600080300028F8D004204FF0E021086110BD50
:100670002001002040420F001648006840F00100B1
:10068000144908601448006820F47F00124908608B
:100690000846006840F42A0008600846406820F4D4
:1006A000706048600846806820F47F0088600846D3
:1006B000806840F42A0088600846406A010C0904FA
:1006C00005484162406A41F21111084302494862FB
:1006D000704700003038024000000240F0B50A4682
:1006E00000210023002400BF3DE0012505FA01F3AD
:1006F000156805EA03049C4234D105684F000326BF
:10070000BE40B543056015794E00B54006683543D7
:1007100005601579012D02D01579022D16D1856855
:100720004F000326BE40B543856055794E00B54065
:10073000866835438560456801268E40B54345602F
:10074000456896798E40B6B235434560C5684F001E
:100750000326BE40B543C560D5794E00B540C66896
:100760003543C560491C1029BFD3F0BDF0B5002347
:1007700000244D07ED0E02FA05F3CE1000F120051E
:1007800055F826504E07F70E0F26BE40B543CF1042
:1007900000F1200646F82750CE1000F1200555F84C
:1007A000265045EA0304CE1000F1200545F8264006
:1007B000F0BD0246002013690B400BB1012000E0A0
:1007C00000207047816170470AB1816101E00B042C
:1007D0008361704710B500F0F0F800F077F800F092
:1007E0000EF910BD10B5044601F010FBEE2001F02B
:1007F000F8FA01F0C1FA204601F0F3FA01F0BCFA70
:1008000001F012FB10BD70B504460D4601F0FEFA72
:10081000204601F0E6FA01F0AFFA284601F0E1FACD
:1008200001F0AAFA01F0F2FA44F0010001F0D9FA5D
:1008300001F0A2FA01F0AFFA0646012001F0C5FA74
:1008400001F0F2FA304670BD70B506460C4615460A
:1008500001F0DCFA304601F0C4FA01F08DFA2046CE
:1008600001F0BFFA01F088FA284601F0BAFA01F067
:1008700083FA01F0D9FA70BD70B5044604213C201A
:10088000FFF7C1FF054603213C20FFF7BCFF45EA07
:10089000002000B2208006213C20FFF7B4FF05466F
:1008A00005213C20FFF7AFFF45EA002000B2608041
:1008B00008213C20FFF7A7FF054607213C20FFF752
:1008C000A2FF45EA002000B2A08070BD10B5022250
:1008D0003721D020FFF7B8FF00226A21D020FFF790
:1008E000B3FF502200213C20FFF7AEFF2022012160
:1008F0003C20FFF7A9FF002202213C20FFF7A4FFC4
:1009000010BD00BFFEE700B5FFF7B6FE01F036FEF2
:1009100000BD70B504463C21D020FFF774FF0546AA
:100920003B21D020FFF76FFF45EA002000B2208076
:100930003E21D020FFF767FF05463D21D020FFF77D
:1009400062FF45EA002000B260804021D020FFF71E
:100950005AFF05463F21D020FFF755FF45EA00200A
:1009600000B2A08070BD70B504464421D020FFF7CE
:100970004AFF05464321D020FFF745FF45EA002006
:1009800000B220804621D020FFF73DFF05464521DB
:10099000D020FFF738FF45EA002000B260804821F0
:1009A000D020FFF730FF05464721D020FFF72BFF6F
:1009B00045EA002000B2A08070BD10B501F0BCF97E
:1009C00001226B21D020FFF73FFF00226C21D020B5
:1009D000FFF73AFF09221921D020FFF735FF062241
:1009E0001A21D020FFF730FF08221B21D020FFF76B
:1009F0002BFF08221C21D020FFF726FF10BD10B5C9
:100A00001E20FFF7EFFE10BD0FB5C7B09FEDFE0A29
:100A10008DED450A9FEDFD0A8DED440A01204390BE
:100A200042904A9890ED000A8DED410A4A9890ED67
:100A3000010A8DED400A4A9890ED020A8DED3F0AB9
:100A40004A9890ED030A8DED3E0A4798B0F90000F0
:100A500000EE100AB8EEC00A8DED3D0A4798B0F9D5
:100A6000020000EE100AB8EEC00A8DED3C0A47986D
:100A7000B0F9040000EE100AB8EEC00A8DED3B0A92
:100A80004898B0F9000000EE100AB8EEC00A8DEDEB
:100A90003A0A4898B0F9020000EE100AB8EEC00A0F
:100AA0008DED390A4898B0F9040000EE100AB8EE4E
:100AB000C00A8DED380A4998B0F9000000EE100A1E
:100AC000B8EEC00A8DED370A4998B0F9020000EE81
:100AD000100AB8EEC00A8DED360A4998B0F9040044
:100AE00000EE100AB8EEC00A8DED350A9DED3D0A04
:100AF000DFEDC70A80EE201A8DED3D1A9DED3C0A10
:100B0000DFEDC30A80EE201A8DED3C1A9DED3B0A05
:100B1000DFEDBF0A80EE201A8DED3B1A9DED3D0AF8
:100B2000DFEDBC0A20EE200A8DED3D0A9DED3C0A6A
:100B3000DFEDB80A20EE200A8DED3C0A9DED3B0A60
:100B4000DFEDB40A20EE200A8DED3B0A9DED3D0A53
:100B500020EE000ADDED3C0A00EEA00ADDED3B0AC6
:100B600000EEA00A8DED250A2598FFF7A5FBCDE93B
:100B700026019DED260B01F0D5FF8DED280B9DED97
:100B8000280B51EC100BFFF7C3FB34909DED340A9A
:100B9000DFEDA00A30EE600A8DED230A2398FFF7FF
:100BA0008BFBCDE924019DED240B01F0B1FF8DED10
:100BB000260B9FED990B53EC102B9DED260B51EC62
:100BC000100BFFF7FDFA9FED960B53EC102BCDE9C0
:100BD00028019DED280B51EC100BFFF781FB02D291
:100BE0000020439001E0012043909DED3D0ADDEDA2
:100BF000340A80EE201A8DED3D1A9DED3C0ADDEDA4
:100C0000340A80EE201A8DED3C1A9DED3B0ADDED95
:100C1000340A80EE201A8DED3B1A8348D0ED000A8D
:100C20009DED370A30EE600A8DED330AD0ED010AF2
:100C30009DED360A30EE600A8DED320AD0ED020AE3
:100C40009DED350A30EE600A8DED310A7748D0ED22
:100C5000000A9DED330A20EE800A90ED011ADDEDC9
:100C6000320A01EE200A90ED021ADDED310A01EEA2
:100C7000200A8DED370AD0ED030A9DED330A20EEF0
:100C8000800A90ED041ADDED320A01EE200A90EDA3
:100C9000051ADDED310A01EE200A8DED360AD0EDA0
:100CA000060A9DED330A20EE800A90ED071ADDED6D
:100CB000320A01EE200A90ED081ADDED310A01EE4C
:100CC000200A8DED350A9DED370ADFED590A80EED9
:100CD000201A8DED371A9DED360ADFED550A80EEAC
:100CE000201A8DED361A9DED350ADFED510A80EEA2
:100CF000201A8DED351A9DED370ADFED4E0A20EEF4
:100D0000200A8DED370A9DED360ADFED4A0A20EE06
:100D1000200A8DED360A9DED350ADFED460A20EEFC
:100D2000200A8DED350A444890ED000A20EE000AB5
:100D30004248D0ED000A90ED001A00EE810A8DEDD8
:100D4000250A2598FFF7B8FACDE926019DED260B77
:100D500001F0E8FE8DED280B9DED280B51EC100BFA
:100D6000FFF7D6FA30909DED370A20EE000ADDED50
:100D7000360A00EEA00ADDED350A00EEA00A8DED80
:100D8000250A2598FFF798FACDE926019DED260B57
:100D900001F0C8FE8DED280B9DED280B51EC100BDA
:100DA000FFF7B6FA34903098FFF786FACDE92601BE
:100DB000DDED340A9DED300A30EEC00A8DED210ADA
:100DC0002198FFF779FACDE922019DED220B01F080
:100DD0009FFE8DED240B9DED260B53EC102B9DED0E
:100DE000240B51EC100BFFF7EBF99FED150B53ECB7
:100DF000102BCDE928019DED280B51EC100BFFF7CE
:100E00006FFA23D200201FE0CDCCCC3D9A99993EB9
:100E100000000046C3F51C4100000060B89E23405E
:100E2000000000A09999B93F500000205C0000200C
:100E3000004088440000C842800000208400002058
:100E4000000000403333D33F429001E00120429044
:100E50009DED370ADDED340A80EE201A8DED2F1A54
:100E60009DED360ADDED340A80EE201A8DED2E1A46
:100E70009DED350ADDED340A80EE201A8DED2D1A38
:100E80009DED3A0ADFEDFE0A80EE201A8DED3A1A4A
:100E90009DED390ADFEDFA0A80EE201A8DED391A40
:100EA0009DED380ADFEDF60A80EE201A8DED381A36
:100EB0009DED3A0ADFEDF30A20EE200A8DED3A0AA5
:100EC0009DED390ADFEDEF0A20EE200A8DED390A9B
:100ED0009DED380ADFEDEB0A20EE200A8DED380A91
:100EE000439810B9429800287ED09FEDE70A8DED17
:100EF000290A9FEDE50A8DED280A9FEDE30A8DEDA5
:100F0000270A9FEDE10A8DED260A9DED400ADDEDF1
:100F10003E0A60EE200A9DED410A9DED3F1A40EE2B
:100F2000410A9DED3D0AB0EE001A11EE200A8DED4A
:100F3000250ADDED410A9DED400A60EE800A9DED37
:100F40003F1A9DED3E0A41EE000A9DED3C0AB0EECF
:100F5000001A11EE200A8DED240ADDED400AB6EEEE
:100F6000000A00EEE00ADDED3F0AB0EE401A00EEA6
:100F7000E01A9DED3B0AF0EE000A10EE810A8DEDBD
:100F8000230ADDED3F0AB6EE000A00EEE00ADDEDD1
:100F90003E0A00EEE00ABD48D0ED000AB0EE001AAD
:100FA00060EE810A20EE200ADDED400A9DED3E1A3A
:100FB00060EE811ADDED410A9DED3F1A40EEC11A47
:100FC000B348D0ED000AB0EE001A60EE810A00EEE0
:100FD000A10ADDED2F0A30EE600A8DED220A9DEDAB
:100FE000400ADDED3F0A00E0FEE320EE201A9DED11
:100FF000410ADDED3E0A00EE601AA44890ED000AB9
:10100000F0EE000A20EE200A61EE000A9DED410A92
:101010009DED401A60EE011A9DED3F0A9DED3E1ACE
:1010200040EE011A9A4890ED000AB0EE001A20EE48
:10103000010A40EE210A9DED2E0A30EEC00A8DED28
:10104000210A9DED410ADDED3F0A60EE200A9DED8B
:10105000400A9DED3E1A40EE010A8C4890ED000AD0
:10106000B0EE001A20EE010A20EE801ADDED400AF3
:10107000B6EE000A00EEE00ADDED3F0A00EEE00AFF
:101080008348D0ED000AF0EE001A60EEA10A00EEEF
:10109000801A9DED2D0A31EE400A8DED200A9DED5E
:1010A0003F0AF8EE000A20EE200A8DED1F0A9DEDA2
:1010B0003E0AF0EE000A20EE200A8DED1E0A9DED9C
:1010C000410AF8EE000A20EE200A8DED1D0A9DED82
:1010D000400AF0EE000A20EE200A8DED1C0A9DED7C
:1010E000400AF0EE000A20EE200A8DED1B0A9DED6D
:1010F000410AF0EE000A20EE200A8DED1A0A9DED5D
:101100003E0AF0EE000A20EE200A8DED190A9DED50
:101110003F0AF0EE000A20EE200A8DED180A9DED40
:10112000400AF9EE000A20EE200A8DED170A9DED27
:101130003F0AF9EE000A20EE200A8DED160A90ED26
:10114000000AF8EE000A60EE200A9DED3F0A20EE4C
:10115000800A8DED150A90ED000AF0EE000A60EEAF
:10116000200A9DED3E0A20EE800A8DED140A90EDD6
:10117000000AF8EE000A60EE200A9DED410A20EE1A
:10118000800A4248D0ED000AB1EE001A20EE811A22
:10119000DDED3F0A01EE600A8DED130A3C4890ED4B
:1011A000000AF0EE000A60EE200A9DED400A20EEF3
:1011B000800A3648D0ED000AB1EE001A20EE811AFE
:1011C000DDED3E0A01EE600A8DED120A90ED000A97
:1011D000F8EE000A60EE200A9DED3E0A20EE800A3D
:1011E0002B48D0ED000AB0EE001A20EE811ADDED9A
:1011F000400A01EE200A8DED110A244890ED000A04
:10120000F0EE000A60EE200A9DED3F0A20EE800A13
:101210001F48D0ED000AB0EE001A20EE811ADDED75
:10122000410A01EE200A8DED100A184890ED000ADF
:10123000F0EE000A60EE200A9DED400A20EE800AE2
:101240001348D0ED000AB0EE001A20EE811ADDED51
:101250003E0A01EE200A8DED0F0A0C4890ED000ABF
:10126000F8EE000A60EE200A9DED410A20EE800AA9
:101270000748D0ED000AB0EE001A20EE811A09E00E
:101280000000834235FA8E3C0000000088000020F8
:101290008C000020DDED3F0A01EE200A8DED0E0AE4
:1012A000FD4890ED000AF0EE000A60EE200A9DED88
:1012B0003F0A20EE800A8DED0D0A90ED000AF0EE57
:1012C000000A60EE200A9DED3E0A20EE800AF348F7
:1012D000D0ED000AB1EE001A20EE811ADDED400AD1
:1012E00001EE600A8DED0C0AEB4890ED000AF0EE7D
:1012F000000A60EE200A9DED410A20EE800AE748D0
:10130000D0ED000AB1EE001A20EE811ADDED3F0AA1
:1013100001EE600A8DED0B0ADF4890ED000AF0EE59
:10132000000A60EE200A9DED400A20EE800A8DED55
:101330000A0A439800287DD0429800287AD09DED73
:101340001F0ADDED250A20EE200ADDED1B0A9DEDCA
:10135000241A00EE810ADDED150A9DED221A00EE39
:10136000810ADDED110A9DED211A00EE810ADDED05
:101370000D0A9DED201A00EE810A8DED290ADDEDA2
:101380001E0A9DED250A20EE800ADDED1A0A9DED6C
:10139000241A00EE810ADDED170A9DED231A00EEF6
:1013A000810ADDED140A9DED221A00EE810ADDEDC1
:1013B000100A9DED211A00EE810ADDED0C0A9DED6B
:1013C000201A00EE810A8DED280ADDED1D0A9DED43
:1013D000250A20EE800A9DED191ADDED240A01EEA2
:1013E000200ADDED160A9DED231A00EE810ADDEDDF
:1013F000130A9DED221A00EE810ADDED0F0A9DED24
:10140000211A00EE810ADDED0B0A9DED201A00EE97
:10141000810A8DED270A9DED1C0ADDED250A20EEDF
:10142000200A9DED181ADDED240A01EE200ADDEDFB
:10143000120A00E012E09DED221A00EE810ADDEDB5
:101440000E0A9DED211A00EE810A9DED0A1ADDEDCE
:10145000200A01EE200A8DED260A43E09DED1F0AC9
:10146000DDED250A20EE201A9DED1B0ADDED240A94
:1014700000EE201A8DED291A9DED1E0ADDED250ADC
:1014800020EE200ADDED1A0A9DED241A00EE810AF5
:10149000DDED170A9DED231A00EE810A8DED280A75
:1014A0009DED1D0ADDED250A20EE200A9DED191A9D
:1014B000DDED240A01EE200A9DED161ADDED230A6A
:1014C00001EE200A8DED270A9DED1C0ADDED250AAF
:1014D00020EE201ADDED180A9DED240A00EE801A98
:1014E0008DED261A9DED290A20EE000ADDED280A71
:1014F00000EEA00ADDED270A00EEA00ADDED260AC7
:1015000000EEA00A8DED010A0198FEF7D5FECDE9A7
:1015100002019DED020B01F005FB8DED040B9DED2D
:10152000040B51EC100BFEF7F3FE34909DED340AE2
:10153000DFED5B0AB4EEE00AF1EE10FA05D29FEDA2
:10154000590A594880ED000A04E0B7EE080A5648E7
:1015500080ED000A9DED290ADDED340A80EE201AA7
:101560008DED291A9DED280ADDED340A80EE201A52
:101570008DED281A9DED270ADDED340A80EE201A44
:101580008DED271A9DED260ADDED340A80EE201A36
:101590008DED261A439800287DD0429800287AD0F5
:1015A0009DED400AF1EE400A9DED290A20EE800AE9
:1015B000DDED410A9DED281A00EE810ADDED3E0ABF
:1015C0009DED271A00EE810ADDED3F0A9DED261AFA
:1015D00000EEC10AF0EE000A60EE200A334890EDFA
:1015E000000A9FED331A00EE810A80ED000A9DED9E
:1015F0003F0AF1EE400A9DED290A20EE800ADDED5A
:101600003E0A9DED281A00EEC10ADDED410A9DED6E
:10161000271A00EE810A9DED401ADDED260A01EE43
:10162000200AF0EE000A60EE200A224890ED000A3F
:101630009FED1F1A00EE810A80ED000A9DED3E0A23
:10164000F1EE400A9DED290A20EE800A9DED3F1A39
:10165000DDED280A01EE200ADDED400A9DED271A96
:1016600000EEC10ADDED410A9DED261A00EE810A69
:10167000F0EE000A60EE200A0F4890ED000A9FEDA0
:101680000C1A00EE810A80ED000A9DED3A0A074827
:10169000D0ED000A12E02DE0880000208C00002030
:1016A000CDCC4C3DCDCCCC3D9C000020900000200A
:1016B0000AD7233C94000020980000209FEDFE1ADA
:1016C00001EE600A8DED3A0A9DED390AFB48D0ED36
:1016D000000A9FEDF91A01EE600A8DED390A9DEDC1
:1016E000380AF748D0ED000A9FEDF31A01EE600AC0
:1016F0008DED380A9DED400AF1EE400A9DED3A0A63
:1017000020EE800ADDED3F0A9DED391A00EEC10A98
:10171000DDED3E0A9DED381A00EEC10AF6EE000A34
:1017200020EE200A8DED090ADDED410A9DED3A0A11
:1017300020EE800ADDED3F0A9DED381A00EE810AA9
:101740009DED3E1ADDED390A01EE600AF6EE000A63
:1017500020EE200A8DED080A9DED410ADDED390AE3
:1017600020EE200A9DED401ADDED380A01EE600AF8
:101770009DED3E1ADDED3A0A01EE200AF6EE000A72
:1017800020EE200A8DED070A9DED410ADDED380AB5
:1017900020EE200A9DED401ADDED390A01EE200A07
:1017A000DDED3F0A9DED3A1A00EEC10AF6EE000AA1
:1017B00020EE200A8DED060A9DED090AC148D0ED04
:1017C000001A9DED291AF0EE400A41EEC10A9DED86
:1017D000410A1FED491A01EE200A8DED410A9DEDE7
:1017E000080AD0ED001A00E032E09DED281AF0EE74
:1017F000400A41EEC10A9DED400A1FED531A01EE69
:10180000200A8DED400A9DED070AD0ED001A9DEDEE
:10181000271AF0EE400A41EEC10A9DED3F0A1FED86
:101820005C1A01EE200A8DED3F0A9DED060AD0ED0F
:10183000001A9DED261AF0EE400A41EEC10A9DED18
:101840003E0A1FED651A01EE200A8DED3E0A8AE080
:101850009DED400AF1EE400A9DED3A0A20EE800A25
:10186000DDED3F0A9DED391A00EEC10ADDED3E0ABD
:101870009DED381A00EEC10AF6EE000A20EE200AAD
:101880008DED290A9DED410ADDED3A0A20EE200A90
:10189000DDED3F0A9DED381A00EE810ADDED3E0ACE
:1018A0009DED391A00EEC10AF6EE000A20EE200A7C
:1018B0008DED280A9DED410ADDED390A20EE200A62
:1018C000DDED400A9DED381A00EEC10ADDED3E0A5D
:1018D0009DED3A1A00EE810AF6EE000A20EE200A8B
:1018E0008DED270A9DED410ADDED380A20EE200A34
:1018F000DDED400A9DED391A00EE810ADDED3F0A6B
:101900009DED3A1A00EEC10AF6EE000A20EE200A1A
:101910008DED260A9DED410ADDED290A1FED9C1A89
:1019200001EE200A8DED410A9DED400ADDED280A09
:101930001FEDA11A01EE200A8DED400A9DED3F0A30
:10194000DDED270A1FEDA61A01EE200A8DED3F0AF4
:101950009DED3E0ADDED260A1FEDAB1A01EE200AD1
:101960008DED3E0A00BF9DED410A20EE000ADDED3F
:10197000400A00EEA00ADDED3F0A00EEA00ADDED10
:101980003E0A00EEA00A8DED250A2598FEF794FC8C
:10199000CDE926019DED260B01F0C4F88DED280B55
:1019A0009DED280B51EC100BFEF7B2FC34909DED31
:1019B000410ADDED340A80EE201A4A9880ED001AC3
:1019C0009DED400ADDED340A80EE201A4A9880ED44
:1019D000011A9DED3F0ADDED340A80EE201A4A9887
:1019E00080ED021A9DED3E0ADDED340A80EE201AEC
:1019F0004A9880ED031A9DED410A60EE000A9DEDC4
:101A0000400A40EE000AB6EE000A70EEC00A9DEDF4
:101A1000370AB0EE001A20EE010A20EE800ADDED52
:101A2000400A9DED3F1A20EE811ADDED411ADDEDF1
:101A30003E0A01EEE01ADDED360AF0EE001A60EE25
:101A4000A10A00EE810ADDED400A9DED3E1A60EE2E
:101A5000810A9DED411ADDED3F1A41EE210A9DED0F
:101A6000351AF0EE001A21EE211A01EE200A8DED52
:101A70002C0A9DED400ADDED3F0A20EE201A9DED77
:101A8000410ADDED3E0A00EE201A9DED370AF0EE28
:101A9000000A20EE200A61EE000A9DED410A20EEC8
:101AA000001A9DED3F0A00EE001AB6EE000A31EE74
:101AB000401A9DED360A07E00AD7A33B94000020A8
:101AC000980000209C000020F0EE001A60EE211A21
:101AD000B0EE600A01EE810ADDED3F0A9DED3E1A8F
:101AE00020EE811ADDED411ADDED400A01EEE01A2B
:101AF000DDED350AF0EE001A60EEA10A00EE810A73
:101B00008DED2B0A9DED400ADDED3E0A20EE200A08
:101B1000DDED410A9DED3F1A00EEC10ADDED370A09
:101B2000B0EE001A60EE810A20EE201A9DED3F0A09
:101B3000DDED3E0A60EE200A9DED410ADDED401A22
:101B400040EE210A9DED360AF0EE001A60EE211AF1
:101B5000B0EE410A01EEA00ADDED410A20EEA01A26
:101B6000DDED3E0A00EEA01AF6EE000A31EE601A34
:101B7000DDED350AF0EE001A60EEA10A00EE810AF2
:101B80008DED2A0A9DED2C0A60EE000A9DED2B0AD0
:101B900040EE000ACDED250A2598FEF78DFBCDE934
:101BA00026019DED260B00F0BDFF8DED280B9DED70
:101BB000280B51EC100BFEF7ABFB1E4908609DEDA6
:101BC0002A0A1D4880ED000A084690ED000A20EE22
:101BD000000A1948D0ED000A90ED001A00EE810AC3
:101BE0008DED250A2598FEF767FBCDE926019DEDD1
:101BF000260B00F097FF8DED280B9DED280B51EC87
:101C0000100BFEF785FB34900A48D0ED000A9DEDDD
:101C1000340A80EE801A094880ED001A0648D0ED9B
:101C2000000A9DED340A80EE801A054880ED001A06
:101C30004BB000BD80000020840000208800002000
:101C40008C0000202DE9F0413348FEF762FE334856
:101C5000FEF789FE3248FEF70FFE324B304A2F491D
:101C60002D48FEF7D1FE30480078401C2E49087000
:101C70000846007801284AD100200870294890EDD4
:101C8000000ADFED2A0A20EE200ABDEEC00A10EE9F
:101C9000100A04B2234890ED010ADFED240A20EE79
:101CA000200ABDEEC00A10EE100A05B21D4890EDE4
:101CB000020ADFED1E0A20EE200ABDEEC00A10EE79
:101CC000100A06B2174890ED030ADFED180A20EE5D
:101CD000200ABDEEC00A10EE100A07B260B2144925
:101CE00008702012487068B288702812C87070B2EC
:101CF00008713012487178B288713812C8710020AA
:101D00000872042209210A48FEF743FC00BF0A209A
:101D1000FEF77EFCBDE8F081180000201E000020C8
:101D2000240000202C0000204800002000401C4619
:101D3000BC00002000BFFEE71CB50121022000F01E
:101D400049FA01208DF804008DF806004FF48160F7
:101D5000009000208DF8070001208DF805006946ED
:101D60000448FEF7BBFC4FF481610248FEF72AFDF0
:101D70001CBD00000004024010B5012000F0DAFA9A
:101D8000012000F0BBFA00F0C7FA0446002000F082
:101D9000B5FA204610BD70B50025012000F0CAFA42
:101DA00000240EE0012000F0A9FA00F0B5FA0128A5
:101DB00002D1802020410543002000F09FFA601CE2
:101DC000C4B2082CEEDB284670BD10B50446204690
:101DD00000F0B0FA012000F091FA002000F08EFA35
:101DE00010BD70B5054600240DE08021214101EAB7
:101DF000050000F09FFA012000F080FA002000F0BA
:101E00007DFA601CC4B2082CEFDB70BD10B5012058
:101E100000F090FA012000F071FA002000F08AFA38
:101E2000002000F06BFA10BD10B5002000F082FA1F
:101E3000012000F063FA012000F07CFA10BD704729
:101E400070B5002100230F22C4781CB3174C2468FE
:101E500004F4E064C4F5E064C4F30721C1F10404B0
:101E6000E3B20A4144789C40E1B2847814402143B3
:101E70000C07210E0E4C05786155047804F01F05FF
:101E80000124AC4005786D11AD0005F1E025C5F8E1
:101E9000004109E0047804F01F050124AC40054D21
:101EA0000678761145F8264070BD00000CED00E084
:101EB00000E400E080E100E002490143024A1160D1
:101EC000704700000000FA050CED00E070B500243A
:101ED0000EE00021204600F0C2F8002504E00020BA
:101EE00000F0FAF8681CC5B2802DF8DB601CC4B2A3
:101EF000082CEEDB70BD00001CB50121022000F0B3
:101F000069F901208DF8040003208DF805000120F7
:101F10008DF8060000208DF807004FF480700090C7
:101F200069460848FEF7DAFB4FF4007000906946F6
:101F30000448FEF7D3FB012000F0A2F8012000F0D6
:101F4000ADF81CBD0004024070B5054600240DE04C
:101F50008021214101EA050000F0A0F8012000F0F5
:101F60008FF8002000F08CF8601CC4B2082CEFDB66
:101F7000012000F085F8002000F082F870BD10B557
:101F8000012000F08BF8012000F07AF8002000F02A
:101F900085F8002000F074F810BD10B5002000F0A6
:101FA0007DF8012000F06CF8012000F077F810BDFA
:101FB00070B5002406E0002500E06D1CB5F57A7FC1
:101FC000FBD3641CB4F57A7FF5D3FFF795FFAE2001
:101FD00000F072F8D52000F06FF8802000F06CF867
:101FE000A82000F069F83F2000F066F8D32000F048
:101FF00063F8002000F060F8402000F05DF8A120B8
:1020000000F05AF8C82000F057F8DA2000F054F831
:10201000122000F051F8812000F04EF8CF2000F09F
:102020004BF8D92000F048F8F12000F045F8DB200B
:1020300000F042F8302000F03FF8A42000F03CF817
:10204000A62000F039F88D2000F036F8142000F0BA
:1020500033F8AF2000F030F8FFF738FF70BD70B5EF
:1020600005460C4645F0B00000F026F8102141EA84
:10207000141000F021F804F00F0000F01DF870BDFE
:1020800010B5044622464FF480710348FEF79CFBCE
:102090000120FEF7CBFA10BD0004024010B5044643
:1020A00022464FF400710348FEF78EFB0120FEF735
:1020B000BDFA10BD0004024010B50446FFF75FFFF3
:1020C0007820FFF741FF0020FFF73EFF2046FFF793
:1020D0003BFFFFF762FF10BD10B50446FFF74FFF4F
:1020E0007820FFF731FF4020FFF72EFF2046FFF753
:1020F0002BFFFFF752FF10BD00B589B00121084644
:1021000000F068F80121022000F074F80222062194
:102110002D48FEF72BFB02208DF820004020079071
:1021200002208DF8230003208DF8210007A92648FE
:10213000FEF7D4FA0020ADF81800ADF812005320D5
:10214000ADF810004FF6FF70059000208DF81A00D2
:1021500004A91E4800F076FB0020ADF804000F2013
:10216000ADF80C000020ADF80600ADF80A00012023
:10217000ADF8080001A9154800F0E6FA502113480F
:1021800000F022FB0421114800F027FB012202216C
:102190000E4800F010FB4FF4A060FFF78DFE1D20ED
:1021A0008DF8000001208DF8030002208DF8010059
:1021B0008DF802006846FFF743FE0121034800F056
:1021C000A6FA09B000BD0000000002400004004073
:1021D0007047000029B1064A12680243044B1A6096
:1021E00004E0034A12688243014B1A607047000002
:1021F0003038024029B1064A12680243044B1A6083
:1022000004E0034A12688243014B1A6070470000E1
:1022100040380240F0B500210022002402250026AB
:102220000223324F3F6807F00C0121B1042905D089
:10223000082937D105E02E4F076036E02D4F0760A3
:1022400033E02A4F3F1F3F68C7F38056274F3F1F99
:102250003F6807F03F036EB1264FB7FBF3F7DFF897
:102260008CC0ACF1040CDCF800C0CCF3881C07FB7C
:102270000CF40CE01E4FB7FBF3F7DFF870C0ACF1C5
:10228000040CDCF800C0CCF3881C07FB0CF4174FDF
:102290003F1F3F68C7F301477F1C7D00B4FBF5F784
:1022A000076002E0124F076000BF00BF0F4F3F689A
:1022B00007F0F0010909104F7A5C0768D7404760C2
:1022C0000A4F3F6807F4E051890A0B4F7A5C476870
:1022D000D7408760054F3F6807F46041490B064FC0
:1022E0007A5C4768D740C760F0BD000008380240FC
:1022F0000024F40040787D010000002010B5044661
:1023000022464FF480610348FEF75EFA0A20FEF78A
:102310008DF910BD0004024010B508210448FEF7F5
:1023200048FA04460A20FEF781F9204610BD000055
:102330000004024010B50446224608210348FEF777
:1023400043FA0A20FEF772F910BD000000040240B3
:10235000704700002248006840F080502049086023
:102360002048006840F440401E4908601C48383846
:1023700000681B493839086008460068086008464C
:10238000006840F4805008601748091F0860081F63
:10239000006840F08070091F086000BF1048403896
:1023A000006800F000700028F8D040F203700F4978
:1023B00008600B483838006820F0030008493839B5
:1023C00008600846006840F00200086000BF04484A
:1023D0003838006800F00C000828F8D17047000079
:1023E000403802400070004010540107003C024099
:1023F00010B51548006840F4700013490860134890
:10240000006840F001001149086000200F490831C0
:1024100008600E4800680E4908400C4908600D48E5
:10242000091D0860081F006820F48020091F08604B
:10243000002006490C310860FFF78CFF4FF0006068
:1024400001498039086010BD88ED00E00038024085
:10245000FFFFF6FE10300024F0B50C4615460021B3
:102460000022068C4FF6FE773E400684018B028CDC
:102470004FF60C7631407E1C06EA03162E4331439C
:102480004FF6F576324044F0010632430183028470
:10249000F0BDF0B50C461546002100220026078C41
:1024A0004FF6EF7C07EA0C070784018B028C4FF68E
:1024B000FF7707EA041640F6FF4739404FF6FF77EB
:1024C00007EA033739434FF6FF7707EA0527394311
:1024D0004FF65F773A4046F010073A430183028493
:1024E000F0BDF0B50C461546002100220026078CF1
:1024F0004FF6FF6C07EA0C070784818B028C4FF6BE
:10250000FF7707EA04264FF60C7739404FF6FF773E
:1025100007EA03172F4339434FF2FF573A4046F477
:1025200080773A4381830284F0BDF0B50C461546AE
:10253000002100220026078C4EF6FF7C07EA0C07DC
:102540000784818B028C4FF6FF7707EA043640F64A
:10255000FF4739404FF6FF7707EA052739434FF623
:10256000FF7707EA0337394345F6FF773A4046F4E9
:1025700080573A4381830284F0BD000049480068D7
:1025800040F001004749086063204749088544F648
:102590001F60C862002008860846008820F00100FD
:1025A00008800846008820F010000880084600884F
:1025B00040F0800008800846008B20F0030008836C
:1025C0000846008B40F0080008830846008B20F086
:1025D000700008830846008B40F0600008830846BE
:1025E000008B20F4407008830846008B40F40060A4
:1025F00008830846008B20F4E04008830846008BDF
:1026000040F4C04008830846808B20F00300888394
:102610000846808B40F0080088830846808B20F0B5
:10262000700088830846808B40F0600088830846ED
:10263000808B20F4407088830846808B40F40060D3
:1026400088830846808B20F4E04088830846808B8E
:1026500040F4C040888340F2DC5048638863C8631C
:1026600008640846008C42F2222188430E490884FF
:102670000846008C41F2111108430B4908840A48AE
:102680004430008840F40040A1F844000846808AA5
:1026900040F0010088820846008840F00100088070
:1026A00070470000443802400000014010B502218C
:1026B000114800F038F8C8B10F48343000680F49AD
:1026C00008800846008840F6340188420BDC0B483D
:1026D00001880B4802780078401C094B18700948A3
:1026E00020F8121002E0002005490870022102487B
:1026F00000F00AF810BD0000000400404C0000206B
:102700004E000020AC000020CA430282704721B175
:10271000028842F00102028004E002884FF6FE7354
:102720001A400280704730B5024600200023002482
:10273000158A05EA0103958905EA010413B10CB174
:10274000012000E0002030BD70B505460C46208811
:1027500050B92389A28861882846FFF77DFEE18869
:10276000284600F043F825E0208804280AD1238970
:10277000A28861882846FFF78CFEE188284600F091
:102780003EF817E0208808280AD12389A2886188AA
:102790002846FFF7A6FEE188284600F03DF809E04C
:1027A0002389A28861882846FFF7BFFEE188284672
:1027B00000F03BF870BD1AB183890B43838102E0BE
:1027C00083898B43838170470A46002101894FF634
:1027D0008F73194011430181704702894FF6F873D6
:1027E0001A40028102890A4302817047028B4FF628
:1027F000F3731A400283028B0A4302837047028BF1
:102800004FF2FF331A400283028B4FF6FF7303EA45
:1028100001231A4302837047828B4FF6F3731A40E9
:102820008283828B0A4382837047828B4FF2FF330D
:102830001A408283828B4FF6FF7303EA01231A4307
:102840008283704700220288184B98420ED0184BA2
:1028500098420BD0B0F1804F08D0164B984205D06B
:10286000154B984202D0154B984204D14FF68F7306
:102870001A404B881A43124B984207D0114B98428A
:1028800004D04FF6FF431A400B891A4302804B686D
:10289000C3620B880385054B984202D0044B9842D3
:1028A00001D18B7A038601238382704700000140A7
:1028B000000401400004004000080040000C0040FB
:1028C00000100040001400400748008800F020007D
:1028D00048B105488088054908700348008820F001
:1028E00020000149088070470010014010000020BE
:1028F00070B52DED068B054600F0B6F8514880897D
:1029000020F400504F4988810846808920F4004017
:1029100088810846808920F4805088810846808913
:1029200020F4806088810846808940F00C0088810E
:102930000846008A20F4405008820846808900F446
:10294000004001282CD12846FDF7A9FC41EC1A0BC8
:1029500053EC1A2B9FED3C0B51EC100BFDF730FCA8
:1029600041EC190BFDF7D4FC08EE100ABCEEC80AC6
:1029700010EE100A364908800846008800EE100A5A
:10298000B8EE400A78EE400AB2EE001AB6EE000A3F
:1029900000EE810ABCEEC00A10EE100A84B22BE0F1
:1029A0002846FDF77CFC41EC1A0B53EC1A2B9FEDEB
:1029B000290B51EC100BFDF703FC41EC190BFDF753
:1029C000A7FC08EE100ABCEEC80A10EE100A204957
:1029D00008800846008800EE100AB8EE400A78EE3B
:1029E000400AB3EE001AB6EE000A00EE810ABCEE11
:1029F000C00A10EE100A84B21548008844EA00109C
:102A0000104908810846808940F0200088811348D9
:102A1000006840F4A060114908601148006840F067
:102A200020004FF0E021C1F8040105210D4801709C
:102A30000448808940F4005002498881BDEC068B2F
:102A400070BD00000010014000000000F406644169
:102A50004A00002000000000F40654410CED00E0A4
:102A600004E100E024E400E01548006840F00200C2
:102A70001349086012481430006840F010001049F3
:102A8000143108600F48006840F0EE400D490860BE
:102A90000C482038006840F420400A49203908607A
:102AA000081D0068091D0860081D006840F470409A
:102AB000091D0860081D0068091D086070470000B6
:102AC000303802402004024010B503460C46002274
:102AD00004E0985C00F00EF8501C82B2A242F8DBD1
:102AE00000BF0348008800F040000028F9D010BD66
:102AF0000010014000BF0449098801F0800100294D
:102B0000F9D00149888070470010014000BFFEE7FE
:102B10002DED020B019820F0004001909DED000B7F
:102B200002B0704700B52DED048BB0EE409AF0EE88
:102B3000609A83B051EC190BFDF79AFC41EC180B2D
:102B400018EE100A18EE901A8DED008B002818BFB1
:102B50000120084320F00040C0F17F6000F1E04018
:102B6000C00F14D019EE101A19EE900A8DED009BCB
:102B7000002918BF0121084320F00040C0F17F6008
:102B800000F1E040C00F04BF012000F017F8B0EEE4
:102B9000480A03B0F0EE680ABDEC048B00BD02E009
:102BA00008C8121F08C1002AFAD1704770470020D8
:102BB00001E001C1121F002AFBD1704701490860E2
:102BC00070470000A800002010B5002821D0114B4C
:102BD0000022001F196803E0814203D80A464968B1
:102BE0000029F9D152B11368841A9C4204D10068BB
:102BF00018441060104602E0506000E0186039B1DF
:102C000002680B1A934203D10B681A4402604968A8
:102C1000416010BDA0000020FDF7ADFC01E0FFF712
:102C200011F8FCE7F0B50B30154D20F0070100243A
:102C3000144A0FE003688B420BD38B4205D95E1A0E
:102C400043184768C3E9006700E04368136002C0A7
:102C500004E0021D10680028ECD12046002802D1B3
:102C6000286808B10020F0BD064A07481060074AEE
:102C7000121A22F00702C0E9002401202860D7E7D9
:102C8000A4000020A0000020340100203003002018
:102C9000B02C000800000020AC0000009E2B0008B3
:102CA0005C2D0008AC00002084060000AE2B00085C
:102CB00000000000010203040102030406070809E2
:102CC0000000000000000000000000000000000004
:102CD0000000000000000000000000000000803F35
:102CE00000000000000000000000000000000000E4
:102CF00000000000000000000000000000000000D4
:102D0000519A0643BC8576C3E98826420000803F7D
:102D100052491DB97F87A23952491DB90000803F31
:102D200082A8FBB77F87A23982A8FBB70000803F4B
:102D300000004842000000000000803F000000004A
:102D40000000000000000000000000000000000083
:0C2D500000000000000000000000000077
:040000050800018965
:00000001FF
