:020000040800F2
:10000000F00600209D01000807160008CF08000830
:10001000FD140008D7050008D522000800000000E4
:10002000000000000000000000000000191B000894
:10003000DB0500080000000099190008B501000860
:10004000B7010008B7010008B7010008B7010008B0
:10005000B7010008B7010008B7010008B7010008A0
:10006000B7010008B7010008B7010008B701000890
:10007000B7010008B7010008B7010008B701000880
:10008000B7010008B7010008B7010008B701000870
:10009000B7010008B7010008B7010008B701000860
:1000A000B7010008B7010008B7010008B701000850
:1000B000B7010008751E0008B7010008B701000865
:1000C000B7010008B7010008B7010008B701000830
:1000D000B701000891200008B7010008B701000827
:1000E000B7010008B7010008B7010008B701000810
:1000F000B7010008B7010008B7010008B701000800
:10010000B7010008B7010008B7010008B7010008EF
:10011000B7010008B7010008B7010008B7010008DF
:10012000B7010008B7010008B7010008B7010008CF
:10013000B7010008B7010008B7010008B7010008BF
:10014000B7010008B7010008B7010008B7010008AF
:10015000B7010008B7010008B7010008B70100089F
:10016000B7010008B7010008B7010008B70100088F
:10017000B7010008B7010008B7010008B70100087F
:10018000B7010008B7010008DFF80CD000F0A8F9AB
:1001900000480047CD230008F006002006488047AD
:1001A00006480047FEE7FEE7FEE7FEE7FEE7FEE75C
:1001B000FEE7FEE7FEE7FEE7B91B0008890100083D
:1001C0002DE9F04D81EA030404F0004B21F00045D5
:1001D00014464FF0000A23F0004150EA050220D0F7
:1001E00054EA01021DD0C5F30A570246C5F31303B2
:1001F000C1F31300C1F30A5640F4801543F4801391
:10020000A7EB0608101BD64608F2FD3873EB050075
:1002100002D308F1010801E092185B41B8F1000F28
:1002200003DA00200146BDE8F08D00204FF4801174
:10023000064684460EE0171B73EB050705D3121B19
:1002400063EB050306434CEA010C49084FEA300012
:1002500092185B4150EA0107EDD152EA030012D037
:1002600082EA040083EA0501084305D0101BAB4174
:1002700006D20122002306E000224FF0004302E0F4
:100280006FF0010253101AEB06004CEB085110EB13
:100290000A0041EB0B01BDE8F04D00F073B80EB55C
:1002A00040F2334102910021CDE900110A460B468C
:1002B00000F077F803B000BD00F0004230F00040DD
:1002C0000AD0C10D01F56071C0F3160042EA015178
:1002D000C20840071143704700200146704701F0F3
:1002E000004330B421F0004150EA010206D00A0D6B
:1002F000A2F56072C1F31301002A02DC30BC0020B9
:100300007047440F44EAC104C100E01830BC00EB60
:10031000C250AFF300800029A8BF7047401C4900BD
:1003200008BF20F00100704710B4B0FA80FC00FA5A
:100330000CF050EA010404BF10BC704749B1CCF185
:10034000200421FA04F411FA0CF118BF0121214311
:100350000843A3EB0C01CB1D4FEA00614FEA1020CC
:1003600042BF002010BC704700EBC350104400296E
:10037000A4BF10BC7047401C490008BF20F001001A
:1003800010BC704710B5141E73F1000408DA401C4D
:1003900041F1000192185B411A4301D120F00100A4
:1003A00010BD2DE9F04D92469B4611B1B1FA81F294
:1003B00002E0B0FA80F22032904600F0A3F8044642
:1003C0000F4640EA0A0041EA0B0153465A460843E9
:1003D00013D0114653EA010019D0C8F1400250462B
:1003E00000F09FF805460E4650465946424600F03A
:1003F00089F8084305D0012004E020463946BDE8CD
:10040000F08D0020054346EAE0762C4337430A98F6
:100410006305E40AA0EB08000022FD0A44EA475401
:100420000A3002D500200146E9E7010510196941AB
:10043000DDE9084500196941BDE8F04DA2E72DE965
:10044000F04D00231A461B1A8A4103DB00200146A7
:10045000BDE8F08DC1F30A52C1F3130141F48015D8
:100460004FF0000BD10702D100186D41521E00273A
:10047000044640F2FF11384601EB620A3E468046D0
:10048000024600204FF4801100F04BF8C219714170
:10049000BB1846EB0100B4EB030C75EB000C04D366
:1004A000E41A65EB000517460E46241908F1010011
:1004B0006D4180463428E3DDF91946EB0600091B3F
:1004C000A84103D24FF0FF32134601E00022134649
:1004D0001BEB070046EB0A51BDE8F04DFFF752BF9A
:1004E000064C074D06E0E06840F0010394E8070081
:1004F00098471034AC42F6D3FFF74AFE4424000874
:1005000064240008202A04DB203A00FA02F10020CB
:1005100070479140C2F1200320FA03F31943904041
:100520007047202A04DB203A21FA02F000217047AC
:1005300021FA02F3D040C2F120029140084319464B
:10054000704710B500F0C5F900F02AF901F014F970
:1005500001F0B6F94FF4165001F0AEFD10BD2DE9D3
:10056000F04707460D4690460026B14605F1060ABB
:10057000504601F031FF0446AA202070FF20607031
:100580004FFA88F0A07068B2E070042003E0011F09
:10059000795C2154401C291D8842F8DB002007E0CB
:1005A000215C3144CEB209EB060101F0FF09401C89
:1005B000291D8842F4DB71B2281D21544FFA89F1BC
:1005C000681D2154A91D204601F062FE204601F05D
:1005D000D5FEBDE8F08700BFFEE7704710B50446C2
:1005E00003E04FF47A7000F007F8201EA4F1010137
:1005F0008CB2F6D110BD000010B504460F4801F0D2
:10060000EDF90E4840680E49B0FBF1F060434FF041
:10061000E0214861002088610846006940F005003B
:10062000086100BF4FF0E020006900F4803000282E
:10063000F8D004204FF0E021086110BDE000002058
:1006400040420F001648006840F00100144908605D
:100650001448006820F47F001249086008460068CA
:1006600040F42A0008600846406820F47060486042
:100670000846806820F47F0088600846806840F45F
:100680002A0088600846406A010C09040548416256
:10069000406A41F211110843024948627047000064
:1006A0003038024000000240F0B50A460021002325
:1006B000002400BF3DE0012505FA01F3156805EAB5
:1006C00003049C4234D105684F000326BE40B54365
:1006D000056015794E00B54006683543056015790B
:1006E000012D02D01579022D16D185684F00032601
:1006F000BE40B543856055794E00B54086683543A8
:100700008560456801268E40B54345604568967909
:100710008E40B6B235434560C5684F000326BE40E3
:10072000B543C560D5794E00B540C6683543C56050
:10073000491C1029BFD3F0BDF0B5002300244D079C
:10074000ED0E02FA05F3CE1000F1200555F8265003
:100750004E07F70E0F26BE40B543CF1000F120061E
:1007600046F82750CE1000F1200555F8265045EAEE
:100770000304CE1000F1200545F82640F0BD0246E6
:10078000002013690B400BB1012000E000207047EE
:10079000816170470AB1816101E00B048361704798
:1007A00010B500F0F0F800F077F800F00EF910BD89
:1007B00010B5044600F00EFFEE2000F0F6FE00F04B
:1007C000BFFE204600F0F1FE00F0BAFE00F010FF80
:1007D00010BD70B504460D4600F0FCFE204600F04A
:1007E000E4FE00F0ADFE284600F0DFFE00F0A8FEBB
:1007F00000F0F0FE44F0010000F0D7FE00F0A0FE93
:1008000000F0ADFE0646012000F0C3FE00F0F0FE51
:10081000304670BD70B506460C46154600F0DAFE4F
:10082000304600F0C2FE00F08BFE204600F0BDFE18
:1008300000F086FE284600F0B8FE00F081FE00F0D1
:10084000D7FE70BD70B5044604213C20FFF7C1FF00
:10085000054603213C20FFF7BCFF45EA002000B21B
:10086000208008213C20FFF7B4FF054607213C20EB
:10087000FFF7AFFF45EA002000B2608006213C2070
:10088000FFF7A7FF054605213C20FFF7A2FF45EA39
:10089000002000B2A08070BD10B502223721D02008
:1008A000FFF7B8FF00226A21D020FFF7B3FF5022E4
:1008B00000213C20FFF7AEFF202201213C20FFF762
:1008C000A9FF002202213C20FFF7A4FF10BD00BFBA
:1008D000FEE700B5FFF7B6FE01F034FA00BD70B5D3
:1008E00004463C21D020FFF774FF05463B21D02071
:1008F000FFF76FFF45EA002000B220803E21D020A4
:10090000FFF767FF05463D21D020FFF762FF45EA6C
:10091000002000B260804021D020FFF75AFF05463A
:100920003F21D020FFF755FF45EA002000B2A0800C
:1009300070BD70B504464421D020FFF74AFF05463C
:100940004321D020FFF745FF45EA002000B2208078
:100950004621D020FFF73DFF05464521D020FFF777
:1009600038FF45EA002000B260804821D020FFF720
:1009700030FF05464721D020FFF72BFF45EA002036
:1009800000B2A08070BD10B500F0BAFD01226B214D
:10099000D020FFF73FFF00226C21D020FFF73AFF65
:1009A00009221921D020FFF735FF06221A21D02075
:1009B000FFF730FF08221B21D020FFF72BFF082272
:1009C0001C21D020FFF726FF10BD10B51E20FFF719
:1009D000EFFE10BDF0B52DED108BA9B005460E460B
:1009E00017461C4694ED000AF0EE409A94ED010A79
:1009F000F0EE408A94ED020AB0EE408A94ED030ACC
:100A0000B0EE409AB5F9000000EE100AB8EEC00A48
:100A10008DED280AB5F9020000EE100AB8EEC00A02
:100A2000F0EE40FAB5F9040000EE100AB8EEC00A84
:100A30008DED270AB6F9000000EE100AB8EEC00AE4
:100A4000F0EE40BAB6F9020000EE100AB8EEC00AA5
:100A5000B0EE40CAB6F9040000EE100AB8EEC00AC3
:100A6000F0EE40CAB7F9000000EE100AB8EEC00A76
:100A7000B0EE40DAB7F9020000EE100AB8EEC00A94
:100A8000F0EE40AAB7F9040000EE100AB8EEC00A72
:100A9000B0EE40BA9DED280A20EE000A0FEEAF0A34
:100AA000DDED270A00EEA00A10EE101A0846FFF747
:100AB00003FCCDE900019DED000B01F00DFC8DED77
:100AC000020B9DED020B51EC100BFFF708FC0AEE38
:100AD000100A9DED280AC0EE0A0ACDED280A8FEE15
:100AE0008A0AF0EE40FA9DED270AC0EE0A0ACDED23
:100AF000270A9FEDFE0A3DEE400ADFEDFD0A20EEDB
:100B0000200AB0EE40DA9FEDFB0A3AEEC00ADFEDB4
:100B1000FA0A20EE200AF0EE40AA9FEDF80A3BEE1A
:100B2000400ADFEDF70A20EE200AB0EE40BA2DEEC3
:100B30000D0A0AEEAA0A0BEE0B0A10EE101A08466E
:100B4000FFF7BAFBCDE900019DED000B01F0C4FBFE
:100B50008DED020B9DED020B51EC100BFFF7BFFB6F
:100B60000AEE100A8DEE0A0AB0EE40DA8AEE8A0A20
:100B7000F0EE40AA8BEE0A0AB0EE40BA9FEDE10A11
:100B8000CBEE800AF0EE60BA9FEDDE0ACCEE000AF2
:100B9000B0EE60CA9FEDDB0ACCEE800AF0EE60CAD0
:100BA0009FEDD90A2BEE800AF0EE40BA9FEDD60AEF
:100BB0002CEE000AB0EE40CA9FEDD30A2CEE800A5C
:100BC000F0EE40CA9FEDD10AB0EE40FA9FEDCF0A99
:100BD000F0EE40DA9FEDCD0AB0EE40EA9FEDCB0A91
:100BE000F0EE40EA68EE890A49EEC80A9DED280A4F
:100BF000B0EE001A11EE200A8DED260A29EEA80AA1
:100C000008EE090AB0EE001AF0EE6F0A51EE000A83
:100C1000CDED250AB6EE000A08EEE80AF0EE400A2D
:100C200048EE480A9DED270AB0EE001A11EE200AA0
:100C30008DED240AB6EE000A08EE480A09EE490ACC
:100C4000B348D0ED000AB0EE001A60EE810A20EE43
:100C5000200A68EE890A49EEC80AAE4890ED001AEB
:100C6000F0EE001A21EE211A01EE200A30EE4D0AB4
:100C70008DED230A28EE880A09EEC90AA448D0EDB2
:100C8000000AB0EE001A60EE810A20EE200A69EE3A
:100C9000A80A48EE090A9F4890ED001AF0EE001AE3
:100CA00021EE211A01EE200A30EE6A0A8DED220AA9
:100CB00029EE880A08EE890A9548D0ED000AB0EEC0
:100CC000001A60EE810A60EE200AB6EE000A08EE15
:100CD000E80A08EE480A8F4890ED001AF0EE001A74
:100CE00021EE211A41EE000A30EECB0A8DED210AE9
:100CF000B8EE000A28EE000A8DED200AB0EE000AD8
:100D000029EE000A8DED1F0AB8EE000A29EE800ACE
:100D10008DED1E0AB0EE000A28EE800A8DED1D0A48
:100D2000B0EE000A28EE800A8DED1C0AB0EE000A33
:100D300029EE800A8DED1B0AB0EE000A29EE000AAA
:100D40008DED1A0AB0EE000A28EE000A8DED190AA0
:100D5000B9EE000A28EE800A8DED180AB9EE000AF5
:100D600028EE000A8DED170A90ED000AF8EE000A51
:100D700020EE200A20EE080A8DED160A90ED000AFA
:100D8000F0EE000A20EE200A20EE090A8DED150A89
:100D900090ED000AF8EE000A20EE200A20EE290A63
:100DA0005B48D0ED000AB1EE001A60EE810A00EE59
:100DB000C80A8DED140A574890ED000AF0EE000ABB
:100DC00020EE200A20EE280A5148D0ED000AB1EEAC
:100DD000001A60EE810A00EEC90A8DED130A90ED4B
:100DE000000AF8EE000A20EE200A20EE090A49481F
:100DF000D0ED000AB0EE001A60EE810A00EEA80AFB
:100E00008DED120A424890ED000AF0EE000A20EE45
:100E1000200A20EE080A3F48D0ED000AB0EE001A82
:100E200060EE810A00EEA90A8DED110A384890EDB6
:100E3000000AF0EE000A20EE200A20EE280A3548CB
:100E4000D0ED000AB0EE001A60EE810A00EE890AC9
:100E50008DED100A2E4890ED000AF8EE000A20EE03
:100E6000200A20EE290A2B48D0ED000AB0EE001A25
:100E700060EE810A00EE880A8DED0F0A244890ED9D
:100E8000000AF0EE000A20EE200A60EE080ACDED1E
:100E90000E0A90ED000AF0EE000A20EE200A20EE85
:100EA000090A1C48D0ED000AB1EE001A60EE810A72
:100EB00000EEE80A8DED0D0A154890ED000AF0EEFF
:100EC000000A20EE200A20EE290A1248D0ED000A7E
:100ED000B1EE001A60EE810A00EEC80A8DED0C0A30
:100EE0000B4890ED000AF0EE000A15E00000084201
:100EF000FFB27B3F00004CC21FD7863F0000D2C22A
:100F0000F33C783F0000834235FA8E3C000000003D
:100F1000480000204C00002020EE200A60EE280A45
:100F2000CDED0B0A9DED200ADDED260A20EE200A0C
:100F3000DDED1C0A9DED251A00EE810ADDED160A95
:100F40009DED231A00EE810ADDED120A9DED221AB5
:100F500000EE810ADDED0E0A9DED211A00EE810AF8
:100F6000B0EE40FA9DED1F0ADDED260A20EE200AC4
:100F70009DED1B1ADDED250A01EE200ADDED180AB4
:100F80009DED241A00EE810ADDED150A9DED231A70
:100F900000EE810ADDED110A9DED221A00EE810AB4
:100FA000DDED0D0A9DED211A00EE810AF0EE40DA2A
:100FB0009DED1E0ADDED260A20EE200ADDED1A0A5F
:100FC0009DED251A00EE810ADDED170A9DED241A2C
:100FD00000EE810ADDED140A9DED231A00EE810A70
:100FE000DDED100A9DED221A00EE810ADDED0C0AFE
:100FF0009DED211A00EE810AB0EE40EA9DED1D0A3A
:10100000DDED260A20EE200ADDED190A9DED251AF8
:1010100000EE810ADDED130A9DED231A00EE810A30
:10102000DDED0F0A9DED221A00EE810ADDED0B0ABF
:101030009DED211A00EE810AF0EE40EA2FEE0F0A34
:101040000DEEAD0A0EEE0E0A0EEEAE0A10EE101AFE
:101050000846FFF731F9CDE900019DED000B01F0E5
:101060003BF98DED020B9DED020B51EC100BFFF7E0
:1010700036F90AEE100AB6EE000ACAEE000AB1EE20
:10108000040A20EE800ADF4880ED000A90ED000A95
:10109000F1EE040AB4EEE00AF1EE10FA03DDB1EE6F
:1010A000040A80ED000AD74890ED000ADFEDD60A69
:1010B000B4EEE00AF1EE10FA03D29FEDD30A80ED10
:1010C000000A8FEE0A0AB0EE40FA8DEE8A0AF0EEC0
:1010D00040DA8EEE0A0AB0EE40EA8EEE8A0AF0EEB0
:1010E00040EAB1EE680A20EE0F0A09EEAD0A09EEF9
:1010F0000E0A08EE6E0AF0EE000A60EE200AC348FF
:1011000090ED000A9FEDC21A00EE810A80ED000A00
:10111000B1EE480A20EE0F0A09EE6D0A09EE8E0ABA
:1011200008EEAE0AF0EE000A60EE200AB94890ED33
:10113000000A9FEDB71A00EE810A80ED000AB1EEB9
:10114000490A20EE0F0A08EE2D0A08EECE0A09EE33
:10115000AE0AF0EE000A60EE200AAF4890ED000AF9
:101160009FEDAB1A00EE810A80ED000AA748D0ED92
:10117000000A9FEDAA1AB0EE6B0A01EE600AF0EECB
:1011800040BAA448D0ED000A9FEDA41AB0EE4C0A74
:1011900001EE600AB0EE40CA9F48D0ED000A9FED14
:1011A0009F1AB0EE6C0A01EE600AF0EE40CAB1EE92
:1011B000680A20EE2B0A08EE4C0A09EE6C0AF6EEDD
:1011C000000A20EE200A8DED0A0A29EEAB0A08EE8D
:1011D0002C0A09EE4C0AF6EE000A20EE200A8DEDEC
:1011E000090A29EE8C0A08EEEC0A09EE2B0AF6EE43
:1011F000000A20EE200A8DED080A29EEAC0A08EE5E
:101200008C0A08EE6B0AF6EE000A20EE200A8DED3D
:10121000070A9DED0A0A7B48D0ED000A00EECF0ACE
:101220009FED7B1AF0EE690A41EE000AF0EE609A3B
:101230009DED090AD0ED000A00EEED0A9FED741A4B
:10124000F0EE680A41EE000AF0EE608A9DED080AB1
:10125000D0ED000A00EECE0A9FED6D1AF0EE480ABE
:1012600041EE000AB0EE608A9DED070AD0ED000A5B
:1012700000EEEE0A9FED661AF0EE490A41EE000A12
:10128000B0EE609A29EEA90A08EEA80A08EE080A4C
:1012900009EE090A10EE101A0846FFF70DF8CDE91D
:1012A00000019DED000B01F017F88DED020B9DED97
:1012B000020B51EC100BFFF712F80AEE100A89EE40
:1012C0008A0A84ED000A88EE8A0A84ED010A88EE13
:1012D0000A0A84ED020A89EE0A0A84ED030A29EE5D
:1012E000A90A08EEA80AF6EE000A30EE600AF0EE4F
:1012F000000A6DEE200A20EE200A68EE880A49EE08
:10130000C90AB0EE001A2AEE811A01EE200A68EE30
:10131000890A49EE880AB0EE001A2BEE011A01EE96
:10132000200A8DED060A28EE880A09EE890AF0EEF9
:10133000000A6DEE200A20EE200A69EEA90A48EEA6
:10134000080AB6EE001A70EEC10AB0EE001A2AEED4
:10135000811A01EE200A68EE090A49EEE80AB0EEA9
:10136000001A2BEE011A01EE200A8DED050A28EE77
:10137000890A09EEC80AF0EE000A6DEE200A20EE96
:10138000200A68EE090A49EEA80AB0EE001A2AEE11
:10139000811A01EE200A69EEA90A49EE090AB6EEA1
:1013A000001A70EEC10AB0EE001A2BEE011A01EE1F
:1013B000200A8DED040A9DED060A60EE000A9DEDFF
:1013C000050A40EE000A10EE901A0846FEF774FF78
:1013D000CDE900019DED000B00F07EFF8DED020BCD
:1013E0009DED020B51EC100BFEF779FF0C490860E4
:1013F0009DED040A0B4880ED000A29B0BDEC108B6E
:10140000F0BD00005C000020CDCCCC3D50000020A1
:101410000AD7233C5400002058000020CDCC4C3D7E
:10142000480000204C0000202DE9F0412D48FFF736
:1014300056FA2D48FFF77DFA2C48FFF703FA2C4B9C
:101440002A4A29492748FFF7C5FA294890ED000A9A
:10145000DFED280A20EE200ABDEEC00A10EE100AC9
:1014600004B2234890ED010ADFED220A20EE200AA3
:10147000BDEEC00A10EE100A05B21D4890ED020A3A
:10148000DFED1C0A20EE200ABDEEC00A10EE100AA5
:1014900006B2174890ED030ADFED160A20EE200A87
:1014A000BDEEC00A10EE100A07B260B21249087011
:1014B0002012487068B288702812C87070B2087123
:1014C0003012487178B288713812C87100200872E1
:1014D000042209210848FFF742F80A20FFF77EF8A6
:1014E000BDE8F08112000020180000201E0000203E
:1014F0002400002000401C467C00002000BFFEE7C6
:101500001CB50121022000F049FA01208DF80400E9
:101510008DF806004FF48160009000208DF80700E0
:1015200001208DF8050069460448FFF7BDF84FF427
:1015300081610248FFF72CF91CBD00000004024045
:1015400010B5012000F0DAFA012000F0BBFA00F03B
:10155000C7FA0446002000F0B5FA204610BD70B569
:101560000025012000F0CAFA00240EE0012000F05E
:10157000A9FA00F0B5FA012802D1802020410543E4
:10158000002000F09FFA601CC4B2082CEEDB284655
:1015900070BD10B50446204600F0B0FA012000F0FE
:1015A00091FA002000F08EFA10BD70B505460024B7
:1015B0000DE08021214101EA050000F09FFA0120A1
:1015C00000F080FA002000F07DFA601CC4B2082C04
:1015D000EFDB70BD10B5012000F090FA012000F0A3
:1015E00071FA002000F08AFA002000F06BFA10BDBA
:1015F00010B5002000F082FA012000F063FA01200B
:1016000000F07CFA10BD704770B5002100230F2256
:10161000C4781CB3174C246804F4E064C4F5E06497
:10162000C4F30721C1F10404E3B20A4144789C40A9
:10163000E1B28478144021430C07210E0E4C05784A
:101640006155047804F01F050124AC4005786D1144
:10165000AD0005F1E025C5F8004109E0047804F08B
:101660001F050124AC40054D0678761145F826404B
:1016700070BD00000CED00E000E400E080E100E05F
:1016800002490143024A1160704700000000FA0558
:101690000CED00E070B500240EE00021204600F0C3
:1016A000C2F8002504E0002000F0FAF8681CC5B27A
:1016B000802DF8DB601CC4B2082CEEDB70BD00008E
:1016C0001CB50121022000F069F901208DF8040009
:1016D00003208DF8050001208DF8060000208DF80C
:1016E00007004FF48070009069460848FEF7DCFF61
:1016F0004FF40070009069460448FEF7D5FF0120C2
:1017000000F0A2F8012000F0ADF81CBD000402407A
:1017100070B5054600240DE08021214101EA050055
:1017200000F0A0F8012000F08FF8002000F08CF805
:10173000601CC4B2082CEFDB012000F085F800200B
:1017400000F082F870BD10B5012000F08BF8012088
:1017500000F07AF8002000F085F8002000F074F81E
:1017600010BD10B5002000F07DF8012000F06CF8ED
:10177000012000F077F810BD70B5002406E00025C8
:1017800000E06D1CB5F57A7FFBD3641CB4F57A7F5D
:10179000F5D3FFF795FFAE2000F072F8D52000F0EA
:1017A0006FF8802000F06CF8A82000F069F83F2066
:1017B00000F066F8D32000F063F8002000F060F835
:1017C000402000F05DF8A12000F05AF8C82000F099
:1017D00057F8DA2000F054F8122000F051F8812078
:1017E00000F04EF8CF2000F04BF8D92000F048F878
:1017F000F12000F045F8DB2000F042F8302000F046
:101800003FF8A42000F03CF8A62000F039F88D2025
:1018100000F036F8142000F033F8AF2000F030F874
:10182000FFF738FF70BD70B505460C4645F0B000B7
:1018300000F026F8102141EA141000F021F804F01D
:101840000F0000F01DF870BD10B5044622464FF49D
:1018500080710348FEF79EFF0120FEF7CDFE10BD0C
:101860000004024010B5044622464FF400710348BC
:10187000FEF790FF0120FEF7BFFE10BD00040240FE
:1018800010B50446FFF75FFF7820FFF741FF002007
:10189000FFF73EFF2046FFF73BFFFFF762FF10BD5B
:1018A00010B50446FFF74FFF7820FFF731FF4020C7
:1018B000FFF72EFF2046FFF72BFFFFF752FF10BD6B
:1018C00000B589B00121084600F068F80121022026
:1018D00000F074F8022206212D48FEF72DFF0220A9
:1018E0008DF820004020079002208DF8230003206F
:1018F0008DF8210007A92648FEF7D6FE0020ADF896
:101900001800ADF812005320ADF810004FF6FF702C
:10191000059000208DF81A0004A91E4800F076FBFF
:101920000020ADF804000F20ADF80C000020ADF849
:101930000600ADF80A000120ADF8080001A915481D
:1019400000F0E6FA5021134800F022FB0421114870
:1019500000F027FB012202210E4800F010FB4FF49B
:10196000A060FFF78DFE1D208DF8000001208DF88E
:10197000030002208DF801008DF802006846FFF791
:1019800043FE0121034800F0A6FA09B000BD0000A3
:1019900000000240000400407047000029B1064AE0
:1019A00012680243044B1A6004E0034A126882433F
:1019B000014B1A60704700003038024029B1064AD6
:1019C00012680243044B1A6004E0034A126882431F
:1019D000014B1A607047000040380240F0B500210A
:1019E00000220024022500260223324F3F6807F020
:1019F0000C0121B1042905D0082937D105E02E4F6B
:101A0000076036E02D4F076033E02A4F3F1F3F68E5
:101A1000C7F38056274F3F1F3F6807F03F036EB163
:101A2000264FB7FBF3F7DFF88CC0ACF1040CDCF801
:101A300000C0CCF3881C07FB0CF40CE01E4FB7FB76
:101A4000F3F7DFF870C0ACF1040CDCF800C0CCF3A5
:101A5000881C07FB0CF4174F3F1F3F68C7F3014773
:101A60007F1C7D00B4FBF5F7076002E0124F0760B2
:101A700000BF00BF0F4F3F6807F0F0010909104F8A
:101A80007A5C0768D74047600A4F3F6807F4E05127
:101A9000890A0B4F7A5C4768D7408760054F3F68DB
:101AA00007F46041490B064F7A5C4768D740C7602E
:101AB000F0BD0000083802400024F40040787D01A9
:101AC0000000002010B5044622464FF48061034810
:101AD000FEF760FE0A20FEF78FFD10BD00040240F5
:101AE00010B508210448FEF74AFE04460A20FEF716
:101AF00083FD204610BD00000004024010B50446DE
:101B0000224608210348FEF745FE0A20FEF774FD31
:101B100010BD000000040240704700002248006829
:101B200040F08050204908602048006840F4404060
:101B30001E4908601C48383800681B49383908605D
:101B40000846006808600846006840F48050086055
:101B50001748091F0860081F006840F08070091FBF
:101B6000086000BF10484038006800F0007000288E
:101B7000F8D040F203700F4908600B48383800680D
:101B800020F003000849383908600846006840F032
:101B90000200086000BF04483838006800F00C00FC
:101BA0000828F8D17047000040380240007000401B
:101BB00010540107003C024010B51548006840F47D
:101BC0007000134908601348006840F00100114993
:101BD000086000200F49083108600E4800680E496F
:101BE00008400C4908600D48091D0860081F00687E
:101BF00020F48020091F0860002006490C3108608D
:101C0000FFF78CFF4FF0006001498039086010BD7C
:101C100088ED00E000380240FFFFF6FE103000249F
:101C2000F0B50C46154600210022068C4FF6FE77D3
:101C30003E400684018B028C4FF60C7631407E1CB0
:101C400006EA03162E4331434FF6F576324044F050
:101C50000106324301830284F0BDF0B50C461546FF
:101C6000002100220026078C4FF6EF7C07EA0C07C4
:101C70000784018B028C4FF6FF7707EA041640F6C3
:101C8000FF4739404FF6FF7707EA033739434FF6EE
:101C9000FF7707EA052739434FF65F773A4046F06A
:101CA00010073A4301830284F0BDF0B50C46154697
:101CB000002100220026078C4FF6FF6C07EA0C0774
:101CC0000784818B028C4FF6FF7707EA04264FF6D4
:101CD0000C7739404FF6FF7707EA03172F43394354
:101CE0004FF2FF573A4046F480773A4381830284AB
:101CF000F0BDF0B50C461546002100220026078CE9
:101D00004EF6FF7C07EA0C070784818B028C4FF6A6
:101D1000FF7707EA043640F6FF4739404FF6FF7772
:101D200007EA052739434FF6FF7707EA03373943B8
:101D300045F6FF773A4046F480573A438183028460
:101D4000F0BD00004948006840F0010047490860C4
:101D500063204749088544F61F60C8620020088652
:101D60000846008820F0010008800846008820F01E
:101D7000100008800846008840F08000088008466F
:101D8000008B20F0030008830846008B40F0080019
:101D900008830846008B20F0700008830846008BFB
:101DA00040F0600008830846008B20F440700883F0
:101DB0000846008B40F4006008830846008B20F43E
:101DC000E04008830846008B40F4C0400883084682
:101DD000808B20F0030088830846808B40F0080049
:101DE00088830846808B20F0700088830846808BAB
:101DF00040F0600088830846808B20F44070888320
:101E00000846808B40F4006088830846808B20F46D
:101E1000E04088830846808B40F4C040888340F2CD
:101E2000DC5048638863C86308640846008C42F24B
:101E3000222188430E4908840846008C41F2111182
:101E400008430B4908840A484430008840F40040A5
:101E5000A1F844000846808A40F0010088820846C4
:101E6000008840F0010008807047000044380240BC
:101E70000000014010B50221114800F038F8C8B147
:101E80000F48343000680F4908800846008840F643
:101E9000340188420BDC0B4801880B48027800783B
:101EA000401C094B1870094820F8121002E000206D
:101EB000054908700221024800F00AF810BD000030
:101EC0000004004042000020440000206C0000207C
:101ED000CA430282704721B1028842F001020280A7
:101EE00004E002884FF6FE731A400280704730B556
:101EF0000246002000230024158A05EA0103958983
:101F000005EA010413B10CB1012000E0002030BD4E
:101F100070B505460C46208850B92389A28861888F
:101F20002846FFF77DFEE188284600F043F825E0CB
:101F3000208804280AD12389A28861882846FFF7CF
:101F40008CFEE188284600F03EF817E0208808283B
:101F50000AD12389A28861882846FFF7A6FEE18876
:101F6000284600F03DF809E02389A28861882846C8
:101F7000FFF7BFFEE188284600F03BF870BD1AB1BC
:101F800083890B43838102E083898B43838170477C
:101F90000A46002101894FF68F73194011430181D0
:101FA000704702894FF6F8731A40028102890A438A
:101FB00002817047028B4FF6F3731A400283028B43
:101FC0000A4302837047028B4FF2FF331A400283A9
:101FD000028B4FF6FF7303EA01231A430283704713
:101FE000828B4FF6F3731A408283828B0A4382837B
:101FF0007047828B4FF2FF331A408283828B4FF6F9
:10200000FF7303EA01231A43828370470022028888
:10201000184B98420ED0184B98420BD0B0F1804F1D
:1020200008D0164B984205D0154B984202D0154B5C
:10203000984204D14FF68F731A404B881A43124BC3
:10204000984207D0114B984204D04FF6FF431A40F4
:102050000B891A4302804B68C3620B880385054BCA
:10206000984202D0044B984201D18B7A0386012317
:1020700083827047000001400004014000040040DA
:1020800000080040000C0040001000400014004018
:102090000748008800F0200048B1054880880549BD
:1020A00008700348008820F020000149088070472C
:1020B000001001401000002070B52DED068B054684
:1020C00000F0B6F85148808920F400504F498881CB
:1020D0000846808920F4004088810846808920F4E1
:1020E000805088810846808920F480608881084675
:1020F000808940F00C0088810846008A20F4405016
:1021000008820846808900F4004001282CD1284626
:10211000FEF7C5F841EC1A0B53EC1A2B9FED3C0B64
:1021200051EC100BFEF74CF841EC190BFEF7D7F809
:1021300008EE100ABCEEC80A10EE100A36490880F4
:102140000846008800EE100AB8EE400A78EE400A11
:10215000B2EE001AB6EE000A00EE810ABCEEC00A2A
:1021600010EE100A84B22BE02846FEF798F841ECF6
:102170001A0B53EC1A2B9FED290B51EC100BFEF7A9
:102180001FF841EC190BFEF7AAF808EE100ABCEE96
:10219000C80A10EE100A204908800846008800EEA0
:1021A000100AB8EE400A78EE400AB3EE001AB6EE16
:1021B000000A00EE810ABCEEC00A10EE100A84B2DA
:1021C0001548008844EA00101049088108468089B3
:1021D00040F0200088811348006840F4A060114955
:1021E00008601148006840F020004FF0E021C1F87D
:1021F000040105210D4801700448808940F4005015
:1022000002498881BDEC068B70BD000000100140C2
:1022100000000000F40664414000002000000000BF
:10222000F40654410CED00E004E100E024E400E099
:102230001548006840F00200134908601248143045
:10224000006840F010001049143108600F48006821
:1022500040F0EE400D4908600C482038006840F41A
:1022600020400A4920390860081D0068091D0860DF
:10227000081D006840F47040091D0860081D0068D2
:10228000091D0860704700003038024020040240F9
:1022900010B503460C46002204E0985C00F00EF8EE
:1022A000501C82B2A242F8DB00BF0348008800F055
:1022B00040000028F9D010BD0010014000BF0449C3
:1022C000098801F080010029F9D001498880704710
:1022D0000010014000BFFEE700B52DED048BB0EE0D
:1022E000409AF0EE609A83B051EC190BFEF7A7F814
:1022F00041EC180B18EE100A18EE901A8DED008BB9
:10230000002818BF0120084320F00040C0F17F6082
:1023100000F1E040C00F14D019EE101A19EE900A27
:102320008DED009B002918BF0121084320F00040DB
:10233000C0F17F6000F1E040C00F04BF012000F059
:1023400017F8B0EE480A03B0F0EE680ABDEC048B53
:1023500000BD02E008C8121F08C1002AFAD1704768
:102360007047002001E001C1121F002AFBD1704715
:1023700001490860704700006800002010B500287F
:1023800021D0114B0022001F196803E0814203D8BD
:102390000A4649680029F9D152B11368841A9C424F
:1023A00004D1006818441060104602E0506000E05C
:1023B000186039B102680B1A934203D10B681A44B2
:1023C00002604968416010BD60000020FEF7B9F866
:1023D00001E0FFF729F8FCE7F0B50B30154D20F0D0
:1023E00007010024144A0FE003688B420BD38B4291
:1023F00005D95E1A43184768C3E9006700E04368DF
:10240000136002C004E0021D10680028ECD12046D1
:10241000002802D1286808B10020F0BD064A07480C
:102420001060074A121A22F00702C0E900240120B6
:102430002860D7E76400002060000020F40000203E
:10244000F002002064240008000000206C0000005E
:1024500052230008D02400086C00002084060000ED
:1024600062230008000000000102030401020304CB
:10247000060708090000000000000000000000003E
:1024800000000000000000000000803F000000008D
:10249000000000000000000000000000000000003C
:1024A0000000000000000000000000000000803F6D
:1024B000000000000000000000000000000000001C
:1024C000000000000000000000000000000000000C
:040000050800018965
:00000001FF
